:1000000000000120B93F0000E13F0000E33F000095
:10001000E53F0000E73F0000E93F0000000000006E
:10002000000000000000000000000000EB3F0000A6
:10003000ED3F000000000000EF3F0000F13F000036
:10004000F33F0000D9360000F9270000F33F00001D
:10005000F33F0000F33F0000F33F0000F33F0000D8
:10006000D92C0000F33F0000F33F0000F33F0000F5
:10007000F33F0000F33F0000F33F0000F33F0000B8
:10008000F33F0000F33F0000F33F0000F33F0000A8
:10009000053B0000F33F0000F33F0000F33F00008A
:1000A000F33F0000F33F0000F33F0000F33F000088
:1000B000F33F0000F33F00000000000000000000DC
:1000C000F33F0000F33F0000F33F0000F33F000068
:1000D000F33F0000F33F0000F33F0000000000008A
:1000E0000000000000000000000000000000000010
:1000F0000000000000000000000000000000000000
:1001000000000000000000000000000000000000EF
:1001100000000000000000000000000000000000DF
:1004000010B5054C237833B9044B13B10448AFF34E
:1004100000800123237010BD0001002000000000B7
:10042000B0400000084B10B51BB108480849AFF3B5
:1004300000800848036803B910BD074B002BFBD0B0
:10044000BDE81040184700BF00000000B0400000A9
:1004500004010020FC00002000000000154B002BD0
:1004600008BF134B9D46A3F5803A00218B460F46EB
:100470001348144A121A00F065F80F4B002B00D0F5
:1004800098470E4B002B00D0984700200021040015
:100490000D000D48002802D00C48AFF3008000F09A
:1004A0002BF82000290000F02BFC00F011F800BF11
:1004B0000000080000000120000000000000000013
:1004C000000100204815002000000000000000008E
:1004D00008B5074B044613B10021AFF30080054B6C
:1004E0001868836A03B19847204600F033F800BFCC
:1004F000000000002840000070B50E4B0E4CE41ABE
:10050000A41000251E46A54204D056F82530984771
:100510000135F8E703F07AFD084C094BE41AA41002
:1005200000251E46A54204D056F8253098470135CF
:10053000F8E770BDF4000020F4000020F80000206F
:10054000F400002002440346934202D003F8011B4A
:10055000FAE77047FEE700BF80B400AFBFF34F8FEC
:100560000549054BDB6803F4E062044B1343CB60A1
:10057000BFF34F8F00BFFDE700ED00E00400FA0578
:1005800080B400AF034B044A1A60BD465DF8047B9B
:10059000704700BF600000200090D00380B500AF1E
:1005A00000F028F90346002B02D0854B854A1A60DB
:1005B00000F042F90346002B06D0834A834B1B68A8
:1005C00003F460435B0B136000F068F90346002BF3
:1005D00005D07F4A7E4BDB6823F08073D36000F048
:1005E0007FF90346002B0ED04FF080430022C3F862
:1005F0000C214FF080430022C3F810214FF08043BC
:100600000022C3F8382500F09DF90346002B02D0E4
:10061000704B03221A6000F0B7F90346002B0BD091
:100620006D4B05221A606D4B01221A606C4B002243
:100630001A606C4B3F221A6000F0C8F90346002B89
:1006400076D0694A4FF08053D3F80434C2F820358D
:10065000654A4FF08053D3F80834C2F82435624A13
:100660004FF08053D3F80C34C2F828355E4A4FF06F
:100670008053D3F81034C2F82C355B4A4FF08053C6
:10068000D3F81434C2F83035574A4FF08053D3F8BA
:100690001834C2F83435544A4FF08053D3F81C3420
:1006A000C2F84035504A4FF08053D3F82034C2F896
:1006B00044354D4A4FF08053D3F82434C2F84835BE
:1006C000494A4FF08053D3F82834C2F84C35464A93
:1006D0004FF08053D3F82C34C2F85035424A4FF0D3
:1006E0008053D3F83034C2F854353F4A4FF080532A
:1006F000D3F83434C2F860353B4A4FF08053D3F816
:100700003834C2F86435384A4FF08053D3F83C345B
:10071000C2F86835344A4FF08053D3F84034C2F8F9
:100720006C35314A4FF08053D3F84434C2F87035F9
:100730002E4A2E4BD3F8883043F47003C2F8883029
:10074000BFF34F8FBFF36F8F4FF01023D3F80032FA
:10075000002B05DB4FF01023D3F80432002B2BDAEB
:10076000234B0122C3F8042500BF214BD3F80034EA
:10077000002BFAD04FF010231522C3F8002200BF3F
:100780001B4BD3F80034002BFAD04FF01023152266
:10079000C3F8042200BF164BD3F80034002BFAD064
:1007A000134B0022C3F8042500BF114BD3F80034CB
:1007B000002BFAD0FFF7D0FEFFF7E2FE80BD00BFAE
:1007C00074C007400DF0ADBA3C0500404402001073
:1007D000F0ED00E0A00500401056004088560040B3
:1007E000185600401456004000C0004000ED00E0E4
:1007F00000E0014080B400AF0C4B1B68DBB2062B5D
:100800000DD10B4B1B6803F00F03002B07D1094BD5
:100810001B6803F0F003302B01D1012300E000231B
:100820001846BD465DF8047B704700BFE00F00F03E
:10083000E40F00F0E80F00F080B400AF144B1B6829
:10084000DBB2062B1DD1134B1B6803F00F03002BEB
:1008500017D1114B1B6803F0F003302B01D101239A
:1008600010E00D4B1B6803F0F003402B01D1012376
:1008700008E0094B1B6803F0F003502B01D1012362
:1008800000E000231846BD465DF8047B704700BFBA
:10089000E00F00F0E40F00F0E80F00F080B400AFCC
:1008A0000C4B1B68DBB2062B0DD10B4B1B6803F006
:1008B0000F03002B07D1094B1B6803F0F003302B0B
:1008C00001D1012300E000231846BD465DF8047BFA
:1008D000704700BFE00F00F0E40F00F0E80F00F0F9
:1008E00080B400AF144B1B68DBB2062B1DD1134B39
:1008F0001B6803F00F03002B17D1114B1B6803F08B
:10090000F003302B01D1012310E00D4B1B6803F0E5
:10091000F003402B01D1012308E0094B1B6803F0D1
:10092000F003502B01D1012300E000231846BD46FF
:100930005DF8047B704700BFE00F00F0E40F00F0AB
:10094000E80F00F080B400AF0C4B1B68DBB2062B45
:100950000DD10B4B1B6803F00F03002B07D1094B84
:100960001B6803F0F003302B01D1012300E00023CA
:100970001846BD465DF8047B704700BFE00F00F0ED
:10098000E40F00F0E80F00F080B400AF0C4B1B68E0
:10099000DBB2062B0DD10B4B1B6803F00F03002BB2
:1009A00007D1094B1B6803F0F003302B01D1012361
:1009B00000E000231846BD465DF8047B704700BF89
:1009C000E00F00F0E40F00F0E80F00F080B400AF9B
:1009D0000C4B1B68DBB2062B0DD10B4B1B6803F0D5
:1009E0000F03002B07D1094B1B6803F0F003502BBA
:1009F00001D1012300E000231846BD465DF8047BC9
:100A0000704700BFE00F00F0E40F00F0E80F00F0C7
:100A100080B400AFBFF34F8F0549054BDB6803F48B
:100A2000E062044B1343CB60BFF34F8F00BFFDE781
:100A300000ED00E00400FA0580B483B000AF7860F8
:100A40007B68D3F81035DBB218460C37BD465DF82D
:100A5000047B704780B485B000AF78600B46FB70B4
:100A6000FB78FB607B684FF47A5202FB03F2FB6871
:100A700022FA03F318461437BD465DF8047B70472D
:100A800080B582B000AF786039607B681B6818461B
:100A9000FFF7D2FF034638681946FFF7DBFF03462E
:100AA00018460837BD4680BD80B400AF4FF0804384
:100AB0000022C3F800214FF0804301221A6000BFDA
:100AC0004FF08043D3F80031002BF9D0BD465DF8DC
:100AD000047B704780B582B000AF03463960FB806D
:100AE000FB88B3F5A07F03D0B3F5A27F0DD00DE056
:100AF00002F0F8FF0346002B06D0064803F040F84A
:100B00000246054B1A6001E000E000BF0837BD4611
:100B100080BD00BF680000202001002080B483B0A9
:100B200000AF78607B681B78012B0CD0022B02D0C1
:100B3000002B04D010E00B4B01221A600CE00A4B92
:100B400001221A6008E0094B01221A60084B1B6859
:100B50000133074A136000BF0C37BD465DF8047BC4
:100B6000704700BF38010020340100203001002010
:100B70002C010020B0B58CB000AF2D4A07F128033E
:100B8000106818602B4A07F12403106818602A4A7D
:100B900007F11C031068516803C3284B3C1D1D4618
:100BA0000FCD0FC495E8030084E8030001233B71D7
:100BB000234B1B78FB7501233B7300237B71214B77
:100BC000BB6000233B7500233B7605237B823B1DE6
:100BD000184602F0FDFEF862FB6A002B01D0FB6AAA
:100BE00022E007F12803184603F070F9F862FB6A67
:100BF000002B01D0FB6A17E007F12403184603F02D
:100C000085F9F862FB6A002B01D0FB6A0CE007F162
:100C10001C031846082103F099F9F862FB6A002BBF
:100C200001D0FB6A00E0FB6A18463037BD46B0BD14
:100C300034400000384000003C40000044400000C8
:100C4000201500201D0B000080B582B000AF786039
:100C50007B681B78012B0ED0022B06D0002B00D016
:100C60000FE0094B01221A600BE07B685B681846B5
:100C700002F03EF805E07B685B68184602F038F841
:100C800000BF0837BD4680BD3C01002080B58AB05A
:100C900000AF174A07F1100307CA83E80700154B96
:100CA0003B604FF400637B60134BBB604FF4006309
:100CB000FB6007F110023B46104619460F4A062317
:100CC00000F0C6FB78627B6A3B623B6A002B02D075
:100CD000386A02F00DF800237B627B6AFB61FB69D6
:100CE000002B02D0F86902F003F82837BD4680BD1A
:100CF0005C4000004001002040090020490C000039
:100D000080B588B002AF64233B6194480021944AC7
:100D100001F09AFEF860FB68BB60BB68002B02D054
:100D2000B86801F0E5FF8D483969FFF7A9FE7860E2
:100D300001230093894800217A68012301F066FFAE
:100D4000FFF7A4FFFFF7B0FEFFF714FFF8600023E2
:100D50007B6107E0834A7B69134400225A717B69F7
:100D600001337B617B69FB2BF4DD7F4B6FF0040269
:100D70001A607E4802F004FF02467D4B1A6006E0CE
:100D8000FA2000F011FC4FF4FA6000F039FC794BC6
:100D90001B68002B07D1784B1B68002B03D1774BC6
:100DA0001B68002BECD0734B1B68012B19D1734BC4
:100DB00000221A60704B00221A606E4B00221A60EB
:100DC000122000F0F1FB3B2000F0EEFB002000F0D1
:100DD000EBFB7F2000F0E8FB4FF4FA6000F010FC22
:100DE0001AE0664B00221A60634B00221A60614BC6
:100DF00000221A6003F01AF8122000F0D5FB3B2005
:100E000000F0D2FB002000F0CFFB712000F0CCFB03
:100E1000642000F0F5FB00E0ABE7594802F0B0FEBB
:100E20000246534B1A6000BF524B1B68002B07D180
:100E3000514B1B68002B03D1504B1B68002BF3D088
:100E40004C4B1B68012B19D14C4B00221A604A4BAA
:100E500000221A60474B00221A60122000F0A4FB07
:100E60003B2000F0A1FB002000F09EFB7F2000F063
:100E70009BFB41F2883000F0C3FB23E03F4B002294
:100E80001A603C4B00221A603B4B00221A6002F0B1
:100E9000CDFF122000F088FB3B2000F085FB0020F6
:100EA00000F082FB722000F07FFB2F4B4FF0FF32EF
:100EB0001A6041F2883000F0A3FB00BF274801F020
:100EC00035FE00E0A9E72B4B1B68002B03D12A4B12
:100ED0001B68002BF7D0274B1B68012B0FD112206A
:100EE00000F062FB3B2000F05FFB002000F05CFBA9
:100EF0007F2000F059FB194801F034FE27E021481B
:100F000002F0DAFE1F4B5B79002B0FD1164B00224B
:100F10001A60122000F048FB3B2000F045FB002047
:100F200000F042FB7C2000F03FFB11E0122000F0BB
:100F30003BFB3B2000F038FB002000F035FB7F201E
:100F400000F032FB054801F00DFE02F06FFF0CE7E8
:100F5000094B1B68012B40F0E880DCE02C400000CE
:100F6000D50A000020150020640000206800002041
:100F70002001002030010020380100203401002031
:100F800090000020F81400209C4B1B78F92B1AD9F4
:100F90009B4801F003FE9B4802F0F2FD02469A4B8B
:100FA0001A609A4B1B790133DAB2984B1A71FE2002
:100FB00000F0FAFAED2000F0F7FABE2000F0F4FAA3
:100FC000AD2000F0F1FA924B1B68FE2B07DC8B4B37
:100FD0005B791A468E4B1B6801339A4207D18C4BC2
:100FE0001B68FF2B1AD1854B5B79002B16D0884BE1
:100FF0001B68DAB2814B5B79D31ADBB20133DBB207
:10100000FB70BA2000F0D0FADF2000F0CDFA00200B
:1010100000F0CAFAFB78184600F0C6FA774B1B7846
:10102000062B2AD1754B9B79DB2B26D1734B5B7931
:10103000184600F0B9FA714B9B79184600F0B4FAE3
:101040006E4BDB79184600F0AFFA6C4B1B7A1846F2
:1010500000F0AAFA694B5B7A184600F0A5FA674BD4
:101060009B7A184600F0A0FA6A4B00221A60634B84
:101070005B791A46664B1A6054E0604B1B78032B71
:1010800019D15E4B9B79FB2B15D15C4BDB79552B32
:1010900011D1FB2000F088FA552000F085FACC2011
:1010A00000F082FA5B4B00221A60544B5B791A46BF
:1010B000574B1A6036E0514B5B791A46544B1A6015
:1010C0004E4B1B78032B08D14C4B9B79F12B04D151
:1010D0004A4BDB79F02B00D11DE0DA2000F064FAF6
:1010E0007A2000F061FA454B1B78184600F05CFA54
:1010F00000237B6109E0414A7B6913445B79184610
:1011000000F052FA7B6901337B613C4B1B781A4635
:101110007B699A42EFDC394802F0CEFD0346002B92
:101120003FF432AF3B4B00221A603B4B1B68012B54
:1011300017D1DE2000F038FAAD2000F035FABE20DD
:1011400000F032FAEF2000F02FFA344B1B680E2B20
:1011500004DD02F019FE314B00221A602E4B0022F2
:101160001A602F4B1B68012B40F0D580C9E02D4B36
:101170001B68012B00F08C80022B00F09180002B6B
:1011800040F0BE80284B1B78422B51D0422B06DC0E
:10119000202B26D0232B10D0172B07D077E0902BB5
:1011A00016D0E12B17D0852B0ED070E0AB2000F0CD
:1011B000FBF9134801F0BAFC69E0AC2000F0F4F947
:1011C0000F4801F0CFFC62E0164B01221A605EE08E
:1011D00002F0FCFD5BE002F0D7FD02460A4B1A600C
:1011E00055E0124802F0CCFC0246074B1A604FF45F
:1011F000FA7000F005FAFFF70BFC48E0F814002045
:101200002C40000068000020200100202015002054
:101210006400002038010020300100202C01002053
:101220003C010020280100201C010020900000202B
:10123000394800F095F9384B1B7803F00F03DAB208
:10124000364B9A72344800F08BF9334B1B7803F01D
:101250000F03DAB2314BDA722F4800F081F92E4BCE
:101260001B7803F00F03DAB22C4B1A732A4800F0F4
:1012700077F9294B1B7803F00F03DAB2274B9A73E7
:10128000264802F07DFC0246254B1A6000BF38E07C
:10129000214B1A78234B1A70234B02221A6030E03C
:1012A000224B1B681C4A11781E4A13440A465A7185
:1012B0001E4B1B6801331D4A13601A4B1B781A46DC
:1012C0001A4B1B689A421AD1174B00221A60184811
:1012D00001F064FC134802F053FC144B1B68DBB2B2
:1012E000184600F061F9114B00221A600D4B0022E4
:1012F0001A700C4B1B790133DAB20A4B1A7100E0F9
:1013000000BF054800F02CF90346002B3FF42FAF37
:10131000084B00221A601BE61C010020B8000020C8
:101320002001002020150020280100202401002099
:101330002C4000003C01002080B485B000AF7860F4
:101340007B689B68FB607B68DA68FB68D31A184689
:101350001437BD465DF8047B704700BF80B586B08A
:1013600000AF786039607B681B78012B31D17B68D6
:101370005B681B783148194601F074FD78617B6920
:10138000002B0AD001233B737B693B612C4B1B680C
:1013900007F10C02104698470DE02848FFF7CCFFF4
:1013A0000346012B07D100233B73254B1B6807F134
:1013B0000C02104698472148FFF7BEFF02461F4B1C
:1013C0009B889A4204D81F48012100F0BBFF31E0FE
:1013D00030E07B681B78022B0FD102233B737B68C4
:1013E000DB683B611748012100F0ACFF144B1B6820
:1013F00007F10C02104698471CE07B681B78002B15
:1014000018D11148114901F047FD0346002B03D1C3
:101410000E48012100F024FE0B48FFF78DFF034624
:10142000002B07D103233B73054B1B6807F10C020C
:10143000104698471837BD4680BD00BF4C110020AC
:1014400040110020481100205C11002044110020B0
:10145000B0B58EB000AFF860B9607A60FB703A4A00
:101460007B681360BB68002B01D1072367E0BB6872
:101470001A68BB685B689BB2344811461A4601F093
:10148000C5FC78637B6B002B01D07B6B57E0BB689E
:101490009A68BB68DB689BB22D4811461A4601F07A
:1014A000B5FC78637B6B002B01D07B6B47E0294B4D
:1014B00007F114041D460FCD0FC495E80F0084E812
:1014C0000F00FB689B68FB62FB681B79002B14BF55
:1014D00001230023DBB287F82830FB7887F830300F
:1014E000FB685B79002B01D00E2300E0002387F816
:1014F0002930FB68DB78FB61FB689B783B62FB680B
:101500001B78BB61FB685B787B6107F114031846AD
:10151000114900F097FC78637B6B002B01D07B6B4B
:101520000DE097F8313083F00103DBB2002B01D0DE
:1015300000F084FF0948012100F004FF034618462B
:101540003837BD46B0BD00BF401100204C1100200F
:101550005C110020684000005D130000481100206D
:1015600080B584B000AF78600D48FFF7E5FE024615
:101570000B4B9B889A4209D10A48012100F0E2FEF8
:10158000F860FB68002B01D0052304E0044879686B
:1015900001F082FC034618461037BD4680BD00BFEF
:1015A0004C1100204811002080B584B000AF0346E4
:1015B000FB71FB791048194601F054FCF860FB6898
:1015C000002B13D100F080FD034683F00103DBB252
:1015D000002B0BD00848094901F05EFC0346002BA4
:1015E00004D10648012100F03BFDF860FB68184675
:1015F0001037BD4680BD00BF5C11002044110020A3
:1016000080B485B000AF786043E07B68013B7B60CD
:1016100040F2E733FB60FB681846013800BF00BFAB
:1016200000BF00BF00BF00BF00BF00BF00BF00BFC2
:1016300000BF00BF00BF00BF00BF00BF00BF00BFB2
:1016400000BF00BF00BF00BF00BF00BF00BF00BFA2
:1016500000BF00BF00BF00BF00BF00BF00BF00BF92
:1016600000BF00BF00BF00BF00BF00BF00BF00BF82
:1016700000BF00BF00BF00BF00BF00BF00BF00BF72
:1016800000BF00BF00BF00BF00BF00BF00BF00BF62
:10169000C3D17B68002BB8D11437BD465DF8047BFD
:1016A000704700BF80B483B000AF0346FB710849A8
:1016B00097F907305B09FA7902F01F02012000FA5E
:1016C00002F241F823200C37BD465DF8047B7047D9
:1016D00000E100E080B483B000AF0346FB7109492C
:1016E00097F907305B09FA7902F01F02012000FA2E
:1016F00002F2603341F823200C37BD465DF8047BCD
:10170000704700BF00E100E080B483B000AF034643
:101710003960FB7197F90730002B0BDA0D49FB7923
:1017200003F00F03043B3A68D2B25201D2B20B4429
:101730001A7609E0084997F907303A68D2B252019F
:10174000D2B20B4483F800230C37BD465DF8047B0E
:10175000704700BF00ED00E000E100E080B582B01E
:1017600000AF03460A46FB711346BB71BB7997F97C
:10177000072010461946FFF7C7FF97F907301846AC
:10178000FFF7A8FF97F907301846FFF78BFF0837D8
:10179000BD4680BD80B483B000AF78600B467B80CF
:1017A0007B887A68134400221A600C37BD465DF8C6
:1017B000047B704780B483B000AF78600B467B80B9
:1017C0007B887A6813441B68002B14BF0123002315
:1017D000DBB218460C37BD465DF8047B704700BF8E
:1017E00080B483B000AF786039607B683A68C3F832
:1017F00004230C37BD465DF8047B704780B483B08A
:1018000000AF786039607B68D3F804233B681340ED
:10181000002B14BF01230023DBB218460C37BD4652
:101820005DF8047B704700BF80B483B000AF786080
:1018300039607B683A68C3F808230C37BD465DF809
:10184000047B704780B485B000AF78607B68D3F8C4
:101850008034FB607B68FA68C3F88024FB68184614
:101860001437BD465DF8047B704700BF80B483B079
:1018700000AF78607B680422C3F800250C37BD46B2
:101880005DF8047B704700BF80B485B000AFF8609E
:10189000B9607A60FB68BA68C3F80C25FB687A689F
:1018A000C3F814251437BD465DF8047B704700BFAC
:1018B00080B485B000AFF860B9607A60FB68BA6840
:1018C000C3F80825FB687A68C3F810251437BD46AD
:1018D0005DF8047B704700BF80B483B000AF7860D0
:1018E0007B68D3F81835DBB218460C37BD465DF877
:1018F000047B704780B483B000AF78600B46FB7008
:10190000FA787B68C3F81C250C37BD465DF8047B6C
:10191000704700BF80B483B000AF78600B46FB70A7
:10192000FB787A68134401221A600C37BD465DF8D3
:10193000047B704780B483B000AF78600B46FB70C7
:101940001346BB70FA78BB781343DBB21A467B6848
:10195000C3F86C250C37BD465DF8047B704700BFAB
:1019600080B483B000AF786039607B683A68C3F8B0
:1019700024250C37BD465DF8047B704780B483B0E6
:1019800000AF78600B467B807B887A681344002226
:101990001A600C37BD465DF8047B704780B483B095
:1019A00000AF78600B467B807B887A6813441B68A5
:1019B000002B14BF01230023DBB218460C37BD46B1
:1019C0005DF8047B704700BF80B483B000AF7860DF
:1019D00039607B68D3F800223B681A437B68C3F800
:1019E00000220C37BD465DF8047B704780B483B09D
:1019F00000AF786039607B68D3F800223B68DB4336
:101A00001A407B68C3F800220C37BD465DF8047BA2
:101A1000704700BF80B483B000AF786039607B68E6
:101A20003A68C3F804230C37BD465DF8047B704761
:101A300080B483B000AF786039607B683A68C3F8DF
:101A400008230C37BD465DF8047B704780B485B031
:101A500000AF78607B68D3F88034FB607B68FA68FD
:101A6000C3F88024FB6818461437BD465DF8047B34
:101A7000704700BF80B483B000AF78607B680822F5
:101A8000C3F800250C37BD465DF8047B704700BFE6
:101A900080B485B000AFF860B9607A60FB68BA685E
:101AA000C3F80C25FB687A68C3F814251437BD46C3
:101AB0005DF8047B704700BF80B485B000AFF8606C
:101AC000B9607A60FB68BA68C3F80825FB687A6871
:101AD000C3F810251437BD465DF8047B704700BF7E
:101AE00080B483B000AF78600B46FB70FB787A68F7
:101AF000134401221A600C37BD465DF8047B704721
:101B000080B483B000AF78600B46FB701346BB70A7
:101B1000FA78BB781343DBB21A467B68C3F86C25AE
:101B20000C37BD465DF8047B704700BF80B483B0BE
:101B300000AF786039607B683A68C3F824250C37B9
:101B4000BD465DF8047B704780B485B000AFF86097
:101B5000B9601346FB71BA68FB68C3F84425FA798B
:101B6000FB68C3F848251437BD465DF8047B704711
:101B700080B483B000AF78607B68D3F84C351846EA
:101B80000C37BD465DF8047B704700BF80B485B05C
:101B900000AFF860B9601346FB71BA68FB68C3F820
:101BA0003425FA79FB68C3F838251437BD465DF84B
:101BB000047B704780B483B000AF78607B68D3F853
:101BC0003C3518460C37BD465DF8047B704700BFB6
:101BD00080B483B000AF7860084611461A460346C9
:101BE000FB700B46BB7013467B704FF0A041FA7838
:101BF000BB785B001A437B789B001A433B7C1B023B
:101C00001A433B7D1B041A437B6803F5E07341F8DC
:101C100023200C37BD465DF8047B704780B584B047
:101C200002AF7860002300930023019378680121BC
:101C300001220023FFF7CCFF0837BD4680BD00BF5F
:101C400090B585B002AF78600B46FB70FC7800233E
:101C50000093002301937868002100222346FFF7B8
:101C6000B7FF0C37BD4690BD80B483B000AF78603D
:101C70004FF0A0427B68012101FA03F3C2F8083556
:101C80000C37BD465DF8047B704700BF80B582B05D
:101C900000AF78607B681B681846FFF7E5FF7B683C
:101CA0001B681846FFF7BAFF7B685B68184600217F
:101CB000FFF7C6FF384B1B7F002B35D07B689B6935
:101CC00036481946FFF732FF7B685A7D7B681B7DDB
:101CD000324811461A46FFF713FF7B681A687B6883
:101CE0005B682E4811461A46FFF7D2FE7B681B7DC3
:101CF000012B4ED17B689B6818460021FFF7A0FF9F
:101D00007B68DB681846FFF7AFFF7B68DB68184627
:101D1000FFF784FF7B68DA687B689B681F48114681
:101D20001A46FFF7C9FE34E07B689B691B481946D9
:101D3000FFF716FE7B685A7D7B681B7D17481146AE
:101D40001A46FFF7F7FD7B681A687B685B681348E3
:101D500011461A46FFF798FD7B681B7D012B18D1B1
:101D60007B689B6818460021FFF76AFF7B68DB6889
:101D70001846FFF779FF7B68DB681846FFF74EFFD0
:101D80007B68DA687B689B68044811461A46FFF74F
:101D90008FFD0837BD4680BD6C110020002000403B
:101DA00080B582B000AF0346FB71194B1B7F002B3F
:101DB00018D018484FF48871FFF7E0FD15484FF42C
:101DC0009071FFF7DBFD13484FF49271FFF7D6FDDA
:101DD00010484FF4A271FFF7D1FD0E480E49FFF7EE
:101DE00019FE0DE00B484FF48E71FFF7D3FC094844
:101DF0004FF4A271FFF7CEFC06480849FFF7F0FC4C
:101E0000FB7902201946FFF7A9FC0837BD4680BDC3
:101E10006C1100200020004010030200800002002E
:101E200080B500AF054B1B7F002B03D00448FFF7A4
:101E300021FE02E00248FFF719FD80BD6C11002071
:101E40000020004080B582B000AF786039601C4B44
:101E5000DB7E002B01D008232DE07B68002B01D115
:101E6000184B7B607B685A7F154B1A777868FFF7B1
:101E70000DFF134A3B6853607B681B69104A13606F
:101E80000F4B5B68002B04D07B681B7F1846FFF765
:101E900087FFFFF7C5FF0A4B0022DA75084B0022C7
:101EA0001A76074B00229A75054B0122DA76044B0D
:101EB00000229A76002318460837BD4680BD00BF31
:101EC0006C1100208840000080B582B000AF0E4841
:101ED0004FF48E71FFF75EFC0C4B9B680B4A928AA5
:101EE00092B213441B78FB71084B9B8A9BB201335F
:101EF0009AB2064B9A82FB7903481946FFF7FAFC1F
:101F00000837BD4680BD00BF002000406C11002096
:101F100080B582B000AF00237B6029484FF48E71FA
:101F2000FFF738FC26480821FFF7F4FCFFF7CCFF49
:101F3000244B5B68002B3ED119E000BF20484FF4D2
:101F40008E71FFF737FC034683F00103DBB2002BF1
:101F500005D01C4B9B8A9BB2B3F5807FEED1194B09
:101F60009B8A9BB2B3F5807F01D0FFF7ADFF154B85
:101F70009B8A9AB2134B9B7D9BB29A42DDD3114B45
:101F80009B8A9BB2B3F5807F02D10F237B600FE069
:101F900000BF0B484FF48E71FFF70CFC034683F033
:101FA0000103DBB2002BF4D105480C21FFF7B2FC92
:101FB000044B00229A757B6818460837BD4680BDE1
:101FC000002000406C11002080B582B000AF0023DB
:101FD0007B6021484FF49071FFF7D0FC1E484FF40E
:101FE000AC71FFF7CBFC1D4B9A681C4B9B7D1A48CC
:101FF00011461A46FFF7A8FD17480821FFF770FDA4
:10200000164B5B68002B21D113484FF49071FFF7FA
:10201000C5FC0346FB7010484FF4AC71FFF7BEFCE3
:102020000346BB70FB7883F00103DBB2002B05D0C5
:10203000BB7883F00103DBB2002BE5D1BB78002B2A
:1020400001D00F237B60054B00229A757B681846F0
:102050000837BD4680BD00BF002000406C11002045
:1020600080B582B000AF78600B46FB70154B1B7FCC
:10207000002B07D07B681B0C1B04B3F1005F01D061
:1020800010231AE000F020F80346002B01D01123A2
:1020900013E00C4AFB7893750A4A7B689360094BFE
:1020A00000229A82074B1B7F002B03D0FFF78CFF87
:1020B000034602E0FFF72CFF034618460837BD46EB
:1020C00080BD00BF6C11002080B400AF054B9B7D2C
:1020D000002B14BF01230023DBB21846BD465DF878
:1020E000047B70476C11002080B500AF07484FF4A7
:1020F0009271FFF74FFB05484FF48471FFF74AFBDD
:1021000002480021FFF706FC80BD00BF0020004010
:1021100098B500AF124BDB7D002B08D111484FF46E
:102120008471FFF737FB0F48FFF7D6FB16E00D4829
:102130004FF48471FFF72EFB094BDB68084A527E8F
:10214000D2B29C180748FFF7C7FB03462370044B25
:102150005B7EDBB20133DAB2014B5A7698BD00BF29
:102160006C1100200020004080B584B000AF786082
:102170000B46FB701346BB70394B9B7E83F001030B
:10218000DBB2002B07D0BB7883F00103DBB2002B5E
:1021900001D0FFF7A9FF324B5B68002B55D13148C6
:1021A0004FF4A271FFF7F6FA2E484FF49271FFF741
:1021B00001FB0346FB732B484FF48471FFF7FAFAD7
:1021C0000346BB7327484FF4A271FFF7F3FA0346A7
:1021D0007B73BB7B83F00103DBB2002B0BD07B7BDB
:1021E00083F00103DBB2002B05D0FB7B83F00103FE
:1021F000DBB2002BD8D1FB7B002B0BD17B7B002BE0
:1022000008D1FFF785FF164BDA7D154B5B7EDBB2FD
:102210009A42C9D8124B0022DA75FB7B002B01D001
:10222000032318E07B7B002B01D00F2313E00C4B22
:102230009B7E002B04D00B480021FFF76BFB09E0CD
:1022400008480421FFF766FB04E006484FF40171DB
:10225000FFF7C6FA002318461037BD4680BD00BF01
:102260006C1100200020004080B584B000AF786081
:102270000B46FB701346BB7030484FF48871FFF774
:102280007DFB2E484FF4A271FFF778FBFB782B48BB
:1022900079681A46FFF77AFCBB7883F00103DBB25A
:1022A000002B04D025480021FFF71AFC03E0234847
:1022B0002021FFF789FB224B5B68002B34D11F489C
:1022C0004FF48871FFF76AFB0346FB731B484FF41A
:1022D000A271FFF763FB0346BB7318484FF492717A
:1022E000FFF75CFB03467B73FB7B83F00103DBB2F0
:1022F000002B0BD0BB7B83F00103DBB2002B05D09E
:102300007B7B83F00103DBB2002BD8D10C4B002286
:10231000DA757B7B002B01D003230BE0BB7B002B0A
:1023200001D00F2306E004E004484FF40471FFF7E6
:1023300071FB002318461037BD4680BD00200040C9
:102340006C11002080B584B000AF78600B46FB7044
:10235000384B1B7F002B07D07B681B0C1B04B3F191
:10236000005F01D0102361E00023FB73314B5B68F9
:10237000002B0ED02F4B1B7F002B05D02E484FF487
:102380000471FFF755FB04E02B484FF40171FFF790
:102390004BFA284BDB7D002B1AD0264B1B7E002BE3
:1023A00014D0244B5B68002B0ED0224B1B7F002BDC
:1023B00005D021484FF40471FFF72CFB04E01E48C0
:1023C0004FF40171FFF70CFA11232FE00123FB7387
:1023D000FB7B83F00103DBB2002B0CD0154AFB78AA
:1023E000D375144A7B68D360124B00225A76114B86
:1023F00000221A7605E00F4A7B6813610D4AFB78CC
:1024000013760C4B1B7F002B08D0FA78FB7B786887
:1024100011461A46FFF728FF034607E0FA78FB7BD0
:10242000786811461A46FFF79FFE03461846103794
:10243000BD4680BD6C1100200020004080B500AF7B
:10244000084B1B7F002B0BD1064B9B7E83F00103B7
:10245000DBB2002B04D0FFF747FE024B01229A7635
:1024600080BD00BF6C11002080B586B000AF034670
:102470003960FB7101233B72FB793B743B68FB6065
:10248000054B5B68044A126807F1080108461146CB
:1024900098471837BD4680BD6C11002080B586B0C6
:1024A00000AF0346FB7100233B72FB793B74094B81
:1024B0009B68FB60074B00229A75064B5B68054AD8
:1024C000126807F108010846114698471837BD46BB
:1024D00080BD00BF6C11002080B586B000AF6E4893
:1024E0004FF40071FFF78AF90346002B38D06A4891
:1024F0004FF49271FFF75EF90346002B30D0664827
:102500004FF49271FFF746F963484FF40171FFF7FA
:102510008BF9624B9B7E83F00103DBB2002B03D06F
:102520005D480421FFF7F6F902233B705A48FFF794
:1025300089F90346FB60594BDB7D3B72574BDB68E7
:102540007B60564B0022DA75544B00221A76534BAF
:102550005B68524A1268394608461146984751E06E
:102560004D480421FFF74AF90346002B4AD04A4858
:102570004FF48471FFF71EF90346002B42D0FFF79A
:10258000C7FD464BDA7D454B5B7EDBB29A4239D1C3
:10259000424B1B7E002B19D0404BDB687B613F4BCD
:1025A0005B7EFB743D4B1A7E3C4BDA753B4B1B69E3
:1025B0003A4AD360394B00221A76384B00225A76B9
:1025C000FB7C18467969FFF74FFF1BE0334B9B7E7E
:1025D00083F00103DBB2002B03D02F480421FFF767
:1025E00099F92D484FF40171FFF71EF92B4B00228A
:1025F000DA752A4B5B7EDAB2284BDB681046194647
:10260000FFF732FF24484FF48E71FFF7D3F80346EB
:10261000002B18D0214B9B8A9AB2204B9B7D9BB2FA
:102620009A4202D2FFF750FC0DE01B484FF48E7126
:10263000FFF7B0F8194B9B7D002B04D0174B9B7D07
:102640001846FFF72BFF14484FF4A271FFF7B2F8BA
:102650000346002B1CD010484FF4A271FFF79AF8E4
:102660000E4B9B7E002B03D00B480021FFF752F945
:102670000A4BDB7D002B0BD0084B0022DA75074B91
:102680005B7EDAB2054BDB6810461946FFF7ECFEBD
:102690001837BD4680BD00BF002000406C110020EF
:1026A00080B586B000AF52484FF49271FFF776F9CB
:1026B0000346002B23D04E484FF49271FFF75EF98A
:1026C00002233B704A48FFF7C1F90346FB604848C4
:1026D000FFF770FA0346DBB23B72464BDB687B6068
:1026E000444B0022DA75434B00221A76414B5B685B
:1026F000404A126839460846114698473CE03C4833
:102700004FF48871FFF74AF90346002B34D038485C
:102710004FF48871FFF732F93548FFF74BFA03465B
:10272000FB75344BDB7DFA7D9A4225D1314B1B7E04
:10273000002B17D02F4BDB683B612D482021FFF782
:1027400055F92C4B1A7E2B4BDA752A4B1B69294AFB
:10275000D360284B00221A76FB7D18463969FFF7B3
:1027600083FE09E0234B0022DA75224BDB68FA7DF9
:1027700010461946FFF778FE1D484FF4A271FFF787
:102780000DF90346002B16D019484FF4A271FFF73C
:10279000F5F8184BDB7D002B0DD0164B0022DA75B7
:1027A0001348FFF707FA0346DAB2124BDB6810460C
:1027B0001946FFF759FE0E484FF49071FFF7EEF8F7
:1027C0000346002B10D00A484FF49071FFF7D6F85B
:1027D000084B9B7D002B07D00548FFF7C9F903463E
:1027E000DBB21846FFF75AFE1837BD4680BD00BF62
:1027F000002000406C11002080B500AF044B1B7F0F
:10280000002B02D0FFF74CFF01E0FFF765FE80BD13
:102810006C11002080B483B000AF78600B46FB7071
:10282000FB787A68134401221A600C37BD465DF8C4
:10283000047B704780B483B000AF78600B467B8028
:102840007B887A68134400221A600C37BD465DF815
:10285000047B704780B483B000AF78600B467B8008
:102860007B887A6813441B68002B14BF0123002364
:10287000DBB218460C37BD465DF8047B704700BFDD
:1028800080B483B000AF786039607B68D3F80022F1
:102890003B681A437B68C3F800220C37BD465DF8DD
:1028A000047B704780B483B000AF786039607B6888
:1028B000D3F800223B68DB431A407B68C3F8002250
:1028C0000C37BD465DF8047B704700BF80B483B011
:1028D00000AF786039607B683A68C3F804230C372E
:1028E000BD465DF8047B704780B483B000AF78606C
:1028F00039607B683A68C3F808230C37BD465DF839
:10290000047B704780B483B000AF786039607B6827
:10291000D3F804233B681340002B14BF012300238A
:10292000DBB218460C37BD465DF8047B704700BF2C
:1029300080B483B000AF78600B46FB707B68D3F83F
:10294000043523F00302FB7803F003031A437B688A
:10295000C3F804250C37BD465DF8047B704700BF03
:1029600080B483B000AF78600B46FB707B68D3F80F
:10297000083523F00302FB7803F003031A437B6856
:10298000C3F808250C37BD465DF8047B704700BFCF
:1029900080B483B000AF78600B46FB707B68D3F8DF
:1029A000103523F00F02FB7803F00F031A437B6806
:1029B000C3F810250C37BD465DF8047B704700BF97
:1029C00080B485B000AFF8600B467A60FB72FA7A8B
:1029D000FB6802F5A872796843F822101437BD46E7
:1029E0005DF8047B704700BF80B483B000AF7860AF
:1029F0007B689BB250339BB29B009BB218460C374E
:102A0000BD465DF8047B704780B483B000AF78604A
:102A10007B684FF4803202FA03F318460C37BD4648
:102A20005DF8047B704700BF80B485B000AF78606C
:102A30007B681B0BFB73FB7B5BB218461437BD46F0
:102A40005DF8047B704700BF90B587B000AFF860B9
:102A5000B9607A60FB681B791A4613465B00134421
:102A60009B00304A13443B613B691B7A002B01D029
:102A7000082353E07B68002B01D107234EE0BB689D
:102A8000002B05D1FB681B79DB00274A1344BB6090
:102A90003B697A681A60BB685A683B695A600023D0
:102AA000FB750DE0FB681C68FB7D1846FFF79CFF7B
:102AB000034620461946FFF7BDFEFB7D0133FB753B
:102AC000FB685B79FA7D9A42ECD3FB681B68184679
:102AD000FFF7AAFF03461A46BB68DB781046194683
:102AE000FEF73CFEFB681A68BB685B781046194627
:102AF000FFF71EFFFB681A68BB689B7810461946F3
:102B0000FFF72EFFFB681A68BB681B781046194652
:102B1000FFF73EFF3B6901221A72002318461C375B
:102B2000BD4690BD8C110020A840000080B582B049
:102B300000AF78607B681B6818460021FFF76AFECB
:102B40007B681B791946064A0B465B000B449B00C9
:102B50001344083302221A700837BD4680BD00BFF7
:102B60008C11002080B582B000AF78607B681B6854
:102B700018461021FFF74EFE7B681B791946064A5E
:102B80000B465B000B449B001344083301221A7070
:102B90000837BD4680BD00BF8C11002080B582B0D3
:102BA00000AF78607B681B6818460C21FFF732FE87
:102BB0000837BD4680BD00BF80B586B000AFF86065
:102BC0007A601A460B46FB721346BB72FB7A1846B4
:102BD000FFF71AFF7861BB7A002B06D0FB681B68F1
:102BE00018467969FFF772FE05E0FB681B68184616
:102BF0007969FFF779FEFB681A68FB7A1046194677
:102C00007A68FFF7DDFE1837BD4680BD80B584B019
:102C100000AFF8607A601A460B46FB7213463B81A0
:102C2000FB681868FB7A4FF480729A40FB7A0121A6
:102C300001FA03F313431946FFF734FEFB681A68E1
:102C40003B8910461946FFF71BFEFA7A3B7EF8686F
:102C500011467A68FFF7B0FF1037BD4680BD00BF50
:102C600080B586B000AFF860B9601346FB710023F1
:102C7000FB7529E0FB7D1846FFF7B6FE0346BB82D5
:102C8000FB7D1846FFF7C0FE3861BB8AF86819461D
:102C9000FFF7E0FD0346002B13D0F8683969FFF712
:102CA00031FE0346002B0CD0BB8AF8681946FFF7AB
:102CB000C1FDBB681B68BA685268B98A08461146EC
:102CC0009847FB7D0133FB75FA7DFB799A42D1D39E
:102CD0001837BD4680BD00BF80B500AF024803492C
:102CE0000422FFF7BDFF80BD008000408C11002052
:102CF00080B586B000AF78600023BB8100233B61C4
:102D00007B687B6107F10C0344F2010000211A4645
:102D100000F018F81837BD4680BD00BF80B400AF82
:102D2000BFF34F8F0549054BDB6803F4E062044BAA
:102D30001343CB60BFF34F8F00BFFDE700ED00E012
:102D40000400FA0580B584B000AFF860B9607A601D
:102D5000FFF7E4FF1037BD4680BD00BF80B485B0EB
:102D600000AF78607B689B68FB607B68DA68FB6813
:102D7000D31A18461437BD465DF8047B704700BF70
:102D800080B483B000AF78600B46FB707B681A6834
:102D90007B68DB68796889880B401344FA781A707D
:102DA0007B68DB685A1C7B68DA600C37BD465DF8CF
:102DB000047B704780B485B000AFF8600B467A6042
:102DC0007B81FB681A68FB6899687B890B44F9680A
:102DD00089880B4013441A787B681A701437BD46F3
:102DE0005DF8047B704700BF80B582B000AF7860AB
:102DF0003960786800213A68FFF7DCFF7B689B68E0
:102E00005A1C7B689A600837BD4680BD80B485B087
:102E100000AFF860B9601346FB80BB68002B01D19E
:102E20000E2319E0FB88002B05D0FB885A1EFB8877
:102E30001340002B01D009230EE0FB68BA681A602A
:102E4000FB88013B9AB2FB689A80FB6800229A607B
:102E5000FB680022DA60002318461437BD465DF88F
:102E6000047B704780B582B000AF78600B46FB7082
:102E70007868FFF773FF02467B689B889A4206D802
:102E8000FB7878681946FFF77BFF002300E00423F6
:102E900018460837BD4680BD80B582B000AF786067
:102EA00039607868FFF75AFF0346002B05D0786831
:102EB0003968FFF799FF002300E00523184608371B
:102EC000BD4680BD80B483B000AF0346FB710849A6
:102ED00097F907305B09FA7902F01F02012000FA26
:102EE00002F241F823200C37BD465DF8047B7047A1
:102EF00000E100E080B483B000AF0346FB710949F4
:102F000097F907305B09FA7902F01F02012000FAF5
:102F100002F2203341F823200C37BD465DF8047BD4
:102F2000704700BF00E100E080B483B000AF03460B
:102F3000FB71094997F907305B09FA7902F01F0222
:102F4000012000FA02F2403341F823200C37BD463D
:102F50005DF8047B704700BF00E100E080B483B0FF
:102F600000AF0346FB71094997F907305B09FA790D
:102F700002F01F02012000FA02F2603341F8232020
:102F80000C37BD465DF8047B704700BF00E100E0F0
:102F900080B483B000AF03463960FB7197F9073006
:102FA000002B0BDA0D49FB7903F00F03043B3A6861
:102FB000D2B25201D2B20B441A7609E0084997F90D
:102FC00007303A68D2B25201D2B20B4483F80023E0
:102FD0000C37BD465DF8047B704700BF00ED00E094
:102FE00000E100E080B487B000AF78607B681B68C8
:102FF0007B617B693B613B6993FAA3F3FB60FB68F0
:10300000BB60BB681BBA00BF18461C37BD465DF8E5
:10301000047B704780B584B000AF78607868FFF7B4
:10302000E1FF0346FB60FB681BBA00BF1846103780
:10303000BD4680BD80B483B000AF7860094B0A4ABA
:10304000C3F81425074A094B5B7C013B1B0443F082
:10305000807343F02003C2F818350C37BD465DF885
:10306000047B70470010004006000300E0000020D1
:1030700080B483B000AF78600B4B0C4AC3F81425C2
:1030800009490B4B5B7C013B1B041A467B681B0206
:103090001A437B68134343F08073C1F818350C372B
:1030A000BD465DF8047B7047001000400001010040
:1030B000E000002090B583B000AF0346FB71FB79C0
:1030C00003F00103002B06D0144C1548FFF7A2FFB4
:1030D0000346C4F81C35FB7903F00203002B06D02D
:1030E0000E4C1048FFF796FF0346C4F82035FB79D5
:1030F00003F00403002B0DD0084C0B48FFF772FFC0
:103100000346C4F82435054C0848FFF76BFF034617
:10311000C4F828350C37BD4690BD00BF00100040F4
:10312000E0000020E4000020E8000020EC00002087
:1031300080B400AF044B054A927AC3F80C25BD4613
:103140005DF8047B704700BF00100040A411002010
:1031500080B400AF144B154A127AC3F81025134BF4
:103160001B7A032B1AD801A252F823F085310000F4
:103170007D3100008D310000953100000C4B302274
:103180001A600CE00A4B40221A6008E0084BFA2251
:103190001A6004E0064B40221A6000E000BFBD4602
:1031A0005DF8047B704700BF00100040A4110020B0
:1031B000E814002080B400AF094B1B78002B06D028
:1031C000012B00D007E0074B074A1A6003E0054BCC
:1031D000064A1A6000BFBD465DF8047B704700BF19
:1031E000A4110020F41400203530000071300000DC
:1031F00080B400AF114B124A527AC3F83425104BF9
:103200005B7A022B09D10D4B4FF6FF72C3F83C25B8
:103210000A4B0C4AC3F838250CE0094B5B7A012BAA
:1032200008D1064BFF22C3F83C25044B40F207129D
:10323000C3F83825BD465DF8047B70470010004098
:10324000A41100202110010080B500AFFFF770FF2E
:10325000FFF77EFFFFF7AEFFFFF7CAFF034B1B68C8
:10326000034AD27C1046984780BD00BFF41400206A
:10327000A411002080B400AF0A4B00221A62094B4F
:1032800000225A62074B00229A62074B00221A6200
:10329000054B00225A62044B00229A62BD465DF83B
:1032A000047B7047E41200203814002080B582B0FF
:1032B00000AFFFF7DFFF00237B600EE07A68134664
:1032C000DB0013449B001344114A1A4411497B68E4
:1032D00041F823207B6801337B607B68072BEDDDA1
:1032E00000233B600EE03A681346DB0013449B006A
:1032F0001344094A1A4409493B6841F823203B68B2
:1033000001333B603B68072BEDDD0837BD4680BDD0
:10331000BC110020E41200201013002038140020FB
:1033200080B500AF0D4B9B6A002B16D00120FFF734
:10333000E1FD0A4B9B6A013B084A9362074B5B6ABB
:103340000133064A5362054B5B6A072B02D9034BD4
:1033500000225A620120FFF7B5FD80BDE412002073
:1033600080B582B000AF03460A46FB711346BB71BD
:10337000354B9B6A072B62D8344B1B78012B0ED13F
:10338000334B1B78202B01D9002359E02E4B1B6AAD
:103390002D4A52F823302E4A12781A7013E02B4B24
:1033A0005B78002B07D1284B1B6A274A52F8233041
:1033B00000221A7007E0244B1B6A234A52F823307C
:1033C000224AD27C1A70204B1B6A1F4A52F82330C3
:1033D000591D1D4B1B6A1C4A52F823301B780846A6
:1033E0001C491A4600F006FE174B1B6A164A52F893
:1033F0002330FA795A70144B1B6A134A52F823305F
:10340000154AD2F84825D2B29A700F4B1B6A0E4A61
:1034100052F82330BA791A710B4B1B6A01330A4AEE
:103420001362094B1B6A072B02D9074B00221A6251
:10343000054B9B6A0133044A9362012300E0002399
:1034400018460837BD4680BD38140020A41100205E
:10345000881400208A1400200010004080B400AFBF
:10346000084B0422C3F81025064B0022C3F8082598
:10347000044B40F20222C3F80022BD465DF8047BF3
:10348000704700BF00A0004080B400AF114B124A4B
:10349000C3F860250F4B114AC3F864250D4B104A41
:1034A000C3F868250B4B0F4AC3F86C25094B0E4A2D
:1034B000C3F87025074B0D4AC3F87425054B0C4A19
:1034C000C3F87825034B0B4AC3F87C25BD465DF84D
:1034D000047B704700F001400011004000A0004054
:1034E0000411004004A0004040A100401010004022
:1034F00044A100400010004080B582B000AF684B8E
:1035000001221A60674B5B6A664A52F82330664AAA
:103510001360654B1B68DB78002B06D0634B1B7D6B
:1035200083F00103DBB2002B01D0012300E0002374
:10353000FB71FB7903F00103FB715C4B1B78002BE3
:1035400002D0012B2FD07BE0594B1B68564A1268E2
:10355000127810469847544B1B681A79554B1A70CD
:10356000544B00225A70504B1B685A1D4E4B1B681F
:103570001B78514811461A4600F03CFD4F4B40F273
:103580001B12C3F800224D4B1122C3F80423474BF2
:10359000DB891A464A4B1A604A4B4B4A1A604B4B1E
:1035A00002221A704CE0404B1B681A78414B1A708B
:1035B0003D4B1B681B795B00DAB23E4B5A703D4BAA
:1035C0005B78DAB2FB79002B01D0002300E0012305
:1035D0001343DBB2DAB2374B5A70334B1B685A1DB8
:1035E000314B1B681B78344811461A4600F002FD27
:1035F000FB79002B14D0314B40F21B12C3F8002290
:103600002E4B1122C3F80423284BDB891A462C4B7E
:103610001A602C4B2C4A1A602C4B02221A700EE0B6
:10362000264B40F21312C3F80022244B1022C3F899
:103630000423244B264A1A60244B01221A7000BF2F
:103640001E4A194B1B685B78C2F82C351B4A164B77
:103650001B685B78194601238B40C2F83035174B45
:103660001C4AD27CC3F80825144B124AC3F804251F
:103670000120FFF773FC0120FFF724FC0F4B002211
:10368000C3F804210D4B0022C3F808210B4B002284
:10369000C3F81021094B01221A600837BD4680BDCE
:1036A000E4140020E41200209C110020A41100204A
:1036B000F414002064140020661400200010004060
:1036C000E0140020EC140020AD3700009911002018
:1036D00069370000E000002080B500AF1F4BD3F831
:1036E0000031002B0AD01D4BD3F8043303F0010343
:1036F000002B03D0194B0022C3F80021174BD3F83D
:103700000C31002B11D0154BD3F8043303F0080310
:10371000002B0AD0114B0022C3F80C21104B1B6860
:10372000002B02D00E4B1B6898470C4BD3F810317E
:10373000002B11D0094BD3F8043303F01003002BF6
:103740000AD0064B0022C3F81021064B1B68002B41
:1037500002D0044B1B68984780BD00BF001000409A
:10376000F0140020EC14002080B500AF0C4B1B6857
:1037700043F001030A4A1360FFF7D2FD094B9B6A2D
:10378000002B06D1084B00221A701420FFF7CCFB47
:1037900004E01420FFF7C8FBFFF7AEFE80BD00BFBA
:1037A000AC140020E41200209911002080B500AF75
:1037B0001D4B40F21312C3F800221C4A1C4B1B681D
:1037C000C2F84035194B1B4A9289823AC3F8442506
:1037D000164B0122DA60154B0022C3F84021134B2F
:1037E0000022C3F84421144B4FF4E052C3F80425DF
:1037F000114B4FF40052C3F808250B4B0022C3F8BD
:103800000C210C4B1B78002B03D10C4B1B680020A8
:103810009847054B0A4AC3F804250A4B0A4A1A601E
:103820000A4B03221A7080BD0010004000A0004027
:10383000E8140020A411002000F00140F41400203E
:1038400088140020EC140020513800009911002049
:1038500080B500AF4F4B4FF4E052C3F808254E4BF4
:10386000D3F80C31002B4BD04B4BD3F80034002B4A
:1038700046D04A4B01225A60464B4FF40052C3F8DF
:103880000825474B1B6843F00103454A1360454B2D
:10389000DB891A46444B1B68D31A0133434A136031
:1038A000FFF73EFD3F4B1B78002B14D0404B1B789D
:1038B000002B10D0384BD3F82C35DBB21846002142
:1038C000FFF74EFD0346002B05D0354B1B6843F038
:1038D0000403334A1360374B9B6A002B03D0314BF0
:1038E0001B7C012B06D1344B00221A701420FFF7E9
:1038F0001BFB4DE01420FFF717FBFFF7FDFD47E032
:10390000294B1B685A1E28490A60002B1AD1234BE9
:1039100001225A601F4B4FF40052C3F80825214B77
:10392000DB8901331A46214B1A601D4B1B6843F09B
:1039300002031B4A1360204B00221A701420FFF769
:10394000F3FA25E0144B40F21B12C3F800221B4B84
:103950001B681B4A12681278104698470E4B194A8A
:10396000C3F80425184B194A1A60134B02221A7027
:103970000A4B01221A60074B4FF40052C3F804258A
:10398000064BD3F84431002B02D0034B01221A60BE
:1039900080BD00BF00F001400010004000A00040CA
:1039A000AC140020A4110020E0140020E414002036
:1039B00088140020E412002099110020F414002043
:1039C0009C11002064140020EC140020AD3700008E
:1039D00080B584B000AF78607B68002B01D10E23E6
:1039E00043E0244B1B78002B07D000F051F8F8601F
:1039F000FB68002B01D0FB6837E07B685B681E4AE0
:103A000013601E487968182200F0F4FA1C4B00225B
:103A10001A601C4800212422FCF794FD1A4800215A
:103A20000922FCF78FFDFFF70FFCFFF73FFCFFF7C4
:103A300015FDFFF729FD114B5B7C03F0030301200B
:103A40001946FFF7A5FA0D4B9B7C03F003031420E6
:103A50001946FFF79DFA1420FFF734FA0B4B0022AA
:103A60001A70044B01221A70002318461037BD4605
:103A700080BD00BF98110020A0110020A4110020DB
:103A8000AC140020BC140020B014002099110020B8
:103A900080B500AF0E4B4FF47052C3F808250D4BA4
:103AA00000221A70FFF7E6FB0B4800212422FCF7E6
:103AB00049FD0A4800210922FCF744FD1420FFF7C4
:103AC00019FA074B0322C3F800220023184680BDD1
:103AD00000F0014099110020BC140020B014002017
:103AE0000010004080B400AF054B1B78002B0CBFCA
:103AF00001230023DBB21846BD465DF8047B704706
:103B00009911002080B584B000AF1B4B1B687B600F
:103B100007F10803184600F0B1F9F860FB68002BC4
:103B200027D1164B1B68002B23D0BB6803F0010381
:103B3000002B06D000233B70104B1B683A46104602
:103B40009847BB6803F00203002B06D001233B70AB
:103B50000A4B1B683A4610469847BB6803F00403BB
:103B6000002B06D002233B70044B1B683A461046DC
:103B700098471037BD4680BDE4140020A0110020F6
:103B800080B582B000AF7860454B1B7883F00103AD
:103B9000DBB2002B01D008237EE07B68002B01D133
:103BA0000E2379E07B681B78002B0DD07B681B7897
:103BB000202B09D83B4B1B78002B07D17B681A7848
:103BC000384BDB7C9A4201D9092365E0364B9B6A6E
:103BD000072B01D904235FE0324B5B78002B0CD11B
:103BE0007B68DB78002B08D02E4B1B7D83F0010314
:103BF000DBB2002B01D006234EE00120FFF77AF95B
:103C0000294B1B6A284A52F8233018467968252226
:103C100000F0F0F97B685B7819467B685B781A46A0
:103C2000224B9B5C5A1C224B1340002B03DA013BB6
:103C300063F003030133DAB21C4B5A541A4B1B6A6C
:103C4000194A52F823307A6852781146174A525C62
:103C50001A71154B1B6A0133134A1362124B1B6A0C
:103C6000072B02D9104B00221A620F4B9B6A0133BB
:103C70000D4A93620120FFF725F90A4B5B78002B70
:103C800009D1084B1B7C002B05D10A4B1B78002B5C
:103C900001D1FFF731FC002318460837BD4680BD2F
:103CA00098110020A4110020E4120020B01400207C
:103CB000030000809911002080B582B000AF7860C9
:103CC0002F4B1B7883F00103DBB2002B01D00823BC
:103CD00051E07B68002B01D10E234CE0294B9B6AFD
:103CE000002B01D1052346E00120FFF703F9254B06
:103CF0005B6A244A52F823301A787B681A70214B89
:103D00005B6A204A52F823305A787B685A701D4B00
:103D10005B6A1C4A52F823309A787B689A70194B78
:103D20005B6A184A52F823301A797B681A717B68EB
:103D3000591D144B5B6A134A52F823305A1D7B6895
:103D40001B78084611461A4600F054F90D4B5B6A81
:103D500001330C4A53620B4B5B6A072B02D9094BA8
:103D600000225A62074B9B6A013B064A936201207C
:103D7000FFF7A8F8002318460837BD4680BD00BFEE
:103D8000981100203814002080B500AF0D4B1B782F
:103D900083F00103DBB2002B01D008230FE00120E8
:103DA000FFF7A8F8084B00229A62074B00221A621C
:103DB000054B00225A620120FFF784F800231846C1
:103DC00080BD00BF98110020E412002080B500AF34
:103DD000144B1B7883F00103DBB2002B01D00823C6
:103DE0001EE0114B9B6A002B02D14FF4807317E049
:103DF0000120FFF77FF80C4B1B6A01330A4A13625C
:103E0000094B1B6A072B02D9074B00221A62064B8B
:103E10009B6A013B044A93620120FFF753F8002399
:103E2000184680BD98110020E412002080B500AF34
:103E30000F4B1B7883F00103DBB2002B01D008236A
:103E400014E00120FFF756F80A4B00229A62094B52
:103E500000221A62074B00225A62074800212422DE
:103E6000FCF770FB0120FFF72DF80023184680BDFA
:103E70009811002038140020BC14002080B582B0B6
:103E800000AF78600F4B1B7883F00103DBB2002B8F
:103E900001D0082312E07B68002B01D10E230DE036
:103EA0000120FFF727F8084B1A687B681A60064B59
:103EB00000221A600120FFF705F800231846083792
:103EC000BD4680BD98110020AC14002080B582B0A2
:103ED00000AF78600B4B1B78002B01D011230DE055
:103EE0007B68002B01D10E2308E007487968042283
:103EF00000F080F80120FFF7DDF8002318460837AE
:103F0000BD4680BD99110020E000002080B582B040
:103F100000AF78600B4B1B78002B01D011230DE014
:103F20007B68002B01D10E2308E007487968042242
:103F300000F060F80220FFF7BDF8002318460837AC
:103F4000BD4680BD99110020E400002080B582B0FC
:103F500000AF78600B46FB70144B1B78002B01D030
:103F600011231FE07B68002B01D10E231AE0FB78A0
:103F7000082B01D9072315E0FB780D4879681A460C
:103F800000F038F80B4AFB781374FB78C3F1080390
:103F9000FF2242FA03F3DAB2064B9A740420FFF7C9
:103FA00089F8002318460837BD4680BD99110020C6
:103FB000E8000020E00000200649074A074B9B1A52
:103FC00003DD043BC858D050FBDCFCF7E7FAFCF7F4
:103FD00045FA0000BC400000000000200001002065
:103FE000FEE7FEE7FEE7FEE7FEE7FEE7FEE7FEE7A9
:103FF000FEE7FEE710B5431E0A44914204D011F8D3
:10400000014B03F8014FF8E710BD0000F8B500BF01
:10401000F8BC08BC9E467047F8B500BFF8BC08BCA9
:104020009E467047430000000000002000800040D2
:1040300000040000E7E7E7E7C2C2C2C2E7C2C3C4A8
:10404000C5C6C7C801000000000000000102000052
:10405000FA00030000010220000000000806050726
:104060000000000000000010060000000800000032
:104070000700000005000000000000000000000034
:104080000000D60106000000060000000800000045
:104090000700000005000000000000000000000014
:1040A0000000D6010600000000000306000000002A
:0440B000000000000C
:0840B400A8C3FF7F010000001A
:1040BC0000000000000000000000000000000000F4
:1040CC0000000000000000000000000000000000E4
:1040DC002440000000000000000000000000000070
:1040EC0000000000000000000000000000000000C4
:1040FC0000000000000000000000000000000000B4
:10410C0000000000000000000000000000000000A3
:10411C000090D003FBFFFFFF0100000000610000D6
:10412C000000000000000000000000000000000083
:10413C000000000000000000000000000000000073
:10414C0003000000001235370000000000000000E2
:10415C000000000000000000000000000000000053
:10416C0000000000000000000900000000FB55AA40
:10417C000000000000000000000000000000000033
:10418C000000000000000000000000000000000023
:10419C00E7E7E7E7C2C2C2C2E7C2C3C4C5C6C7C825
:1041AC000805FF02250400000104000000000000C7
:0400000300003FB901
:00000001FF
